:103E000011248FE594E09EBF8DBF84B714BE81FF5F
:103E1000E3D085E08EBD82E08BB988E18AB986E87F
:103E200080BD80E189B98EE0C3D0B89A96E020E3E6
:103E30003CEF54E041E03DBD2CBD58BF08B602FE4A
:103E4000FDCF88B3842788BBA8959150A1F7CC24D7
:103E5000DD24AA24A394A5E09A2EF1E1BF2EA1D0DF
:103E6000813471F49ED0082FA7D0023811F485E078
:103E700005C0013811F484E001C083E08ED08AC00F
:103E8000823411F484E103C0853419F485E09CD0B8
:103E900081C0853579F485D0E82EFF2482D0082FA3
:103EA00010E0102F00270E291F29000F111F84D0AA
:103EB000680170C0863521F484E086D080E0DECFD2
:103EC000843609F042C06DD06CD0082F6AD080E0F3
:103ED000C81688E3D80620F483E0F60187BFE8958A
:103EE000C0E0D1E05ED089930C17E1F7F0E0CF1687
:103EF000F8E3DF0620F083E0F60187BFE8955CD0A9
:103F000007B600FCFDCFA601A0E0B1E02C9130E0A7
:103F100011968C91119790E0982F8827822B932BE4
:103F20001296FA010C01A7BEE89511244E5F5F4F6F
:103F3000F1E0A038BF0751F7F60197BEE89507B644
:103F400000FCFDCFB7BEE89525C08437B1F429D079
:103F500028D0F82E26D030D0F601EF2C8F010F5F3D
:103F60001F4F84911AD0EA94F801C1F70894C11C3C
:103F7000D11CFA94CF0CD11C0DC0853731F41CD064
:103F80008EE10BD084E909D078CF813511F488E037
:103F90000FD012D080E101D062CF5D9BFECF8CB9F3
:103FA00008955F9BFECF5C9901C0A8958CB10895E0
:103FB00098E191BD81BD0895F4DF803219F088E069
:103FC000F7DFFFCF84E1E9CF1F93182FEADF11500D
:103FD000E9F7F2DF1F91089580E0EADFEE27FF277F
:023FE000099442
:023FFE000504B8
:0400000300003E00BB
:00000001FF
